{
  "_format": "hh-sol-artifact-1",
  "contractName": "Chain",
  "sourceName": "contracts/chain.sol",
  "abi": [
    {
      "anonymous": false,
      "inputs": [
        {
          "indexed": true,
          "internalType": "uint256",
          "name": "productId",
          "type": "uint256"
        },
        {
          "indexed": false,
          "internalType": "enum Chain.State",
          "name": "state",
          "type": "uint8"
        }
      ],
      "name": "ProductStateChanged",
      "type": "event"
    },
    {
      "inputs": [
        {
          "internalType": "string",
          "name": "_name",
          "type": "string"
        }
      ],
      "name": "createProduct",
      "outputs": [
        {
          "components": [
            {
              "internalType": "uint256",
              "name": "id",
              "type": "uint256"
            },
            {
              "internalType": "string",
              "name": "name",
              "type": "string"
            },
            {
              "internalType": "enum Chain.State",
              "name": "state",
              "type": "uint8"
            }
          ],
          "internalType": "struct Chain.Product",
          "name": "",
          "type": "tuple"
        }
      ],
      "stateMutability": "nonpayable",
      "type": "function"
    },
    {
      "inputs": [
        {
          "internalType": "uint256",
          "name": "productId",
          "type": "uint256"
        }
      ],
      "name": "deliverProduct",
      "outputs": [],
      "stateMutability": "nonpayable",
      "type": "function"
    },
    {
      "inputs": [
        {
          "internalType": "uint256",
          "name": "productId",
          "type": "uint256"
        }
      ],
      "name": "getProductState",
      "outputs": [
        {
          "internalType": "enum Chain.State",
          "name": "",
          "type": "uint8"
        }
      ],
      "stateMutability": "view",
      "type": "function"
    },
    {
      "inputs": [
        {
          "internalType": "enum Chain.State",
          "name": "_state",
          "type": "uint8"
        }
      ],
      "name": "getProductsByState",
      "outputs": [
        {
          "components": [
            {
              "internalType": "uint256",
              "name": "id",
              "type": "uint256"
            },
            {
              "internalType": "string",
              "name": "name",
              "type": "string"
            },
            {
              "internalType": "enum Chain.State",
              "name": "state",
              "type": "uint8"
            }
          ],
          "internalType": "struct Chain.Product[]",
          "name": "_products",
          "type": "tuple[]"
        }
      ],
      "stateMutability": "view",
      "type": "function"
    },
    {
      "inputs": [
        {
          "internalType": "uint256",
          "name": "productId",
          "type": "uint256"
        }
      ],
      "name": "moveToTransit",
      "outputs": [],
      "stateMutability": "nonpayable",
      "type": "function"
    },
    {
      "inputs": [],
      "name": "productCount",
      "outputs": [
        {
          "internalType": "uint256",
          "name": "",
          "type": "uint256"
        }
      ],
      "stateMutability": "view",
      "type": "function"
    },
    {
      "inputs": [
        {
          "internalType": "uint256",
          "name": "",
          "type": "uint256"
        }
      ],
      "name": "products",
      "outputs": [
        {
          "internalType": "uint256",
          "name": "id",
          "type": "uint256"
        },
        {
          "internalType": "string",
          "name": "name",
          "type": "string"
        },
        {
          "internalType": "enum Chain.State",
          "name": "state",
          "type": "uint8"
        }
      ],
      "stateMutability": "view",
      "type": "function"
    }
  ],
  "bytecode": "0x60806040526000805534801561001457600080fd5b50611418806100246000396000f3fe608060405234801561001057600080fd5b506004361061007d5760003560e01c80637acc0b201161005b5780637acc0b20146100fe57806385d55cec14610130578063c94fa57914610160578063e0f6ef871461017c5761007d565b806302ec06be1461008257806312bb716d146100b25780631c96fb1f146100e2575b600080fd5b61009c60048036038101906100979190610ab5565b61019a565b6040516100a99190610c5d565b60405180910390f35b6100cc60048036038101906100c79190610cab565b610388565b6040516100d99190610ce7565b60405180910390f35b6100fc60048036038101906100f79190610cab565b6103b5565b005b61011860048036038101906101139190610cab565b6104ba565b60405161012793929190610d5b565b60405180910390f35b61014a60048036038101906101459190610dbe565b610579565b6040516101579190610efd565b60405180910390f35b61017a60048036038101906101759190610cab565b61081e565b005b610184610922565b6040516101919190610f1f565b60405180910390f35b6101a2610928565b6000808154809291906101b490610f69565b919050555060405180606001604052806000548152602001838152602001600060028111156101e6576101e5610b96565b5b815250600160008054815260200190815260200160002060008201518160000155602082015181600101908161021c91906111bd565b5060408201518160020160006101000a81548160ff0219169083600281111561024857610247610b96565b5b02179055509050506000547fdf7efc9f6f5bce44cbf5db3d8362387f6d02e0566c37fb4ed10cd3d05b35ecad60006040516102839190610ce7565b60405180910390a26001600080548152602001908152602001600020604051806060016040529081600082015481526020016001820180546102c490610fe0565b80601f01602080910402602001604051908101604052809291908181526020018280546102f090610fe0565b801561033d5780601f106103125761010080835404028352916020019161033d565b820191906000526020600020905b81548152906001019060200180831161032057829003601f168201915b505050505081526020016002820160009054906101000a900460ff16600281111561036b5761036a610b96565b5b600281111561037d5761037c610b96565b5b815250509050919050565b60006001600083815260200190815260200160002060020160009054906101000a900460ff169050919050565b600160028111156103c9576103c8610b96565b5b6001600083815260200190815260200160002060020160009054906101000a900460ff1660028111156103ff576103fe610b96565b5b1461043f576040517f08c379a000000000000000000000000000000000000000000000000000000000815260040161043690611301565b60405180910390fd5b60026001600083815260200190815260200160002060020160006101000a81548160ff0219169083600281111561047957610478610b96565b5b0217905550807fdf7efc9f6f5bce44cbf5db3d8362387f6d02e0566c37fb4ed10cd3d05b35ecad60026040516104af9190610ce7565b60405180910390a250565b60016020528060005260406000206000915090508060000154908060010180546104e390610fe0565b80601f016020809104026020016040519081016040528092919081815260200182805461050f90610fe0565b801561055c5780601f106105315761010080835404028352916020019161055c565b820191906000526020600020905b81548152906001019060200180831161053f57829003601f168201915b5050505050908060020160009054906101000a900460ff16905083565b60606000805467ffffffffffffffff8111156105985761059761098a565b5b6040519080825280602002602001820160405280156105d157816020015b6105be610928565b8152602001906001900390816105b65790505b509050600080600190505b6000548111610768578460028111156105f8576105f7610b96565b5b6001600083815260200190815260200160002060020160009054906101000a900460ff16600281111561062e5761062d610b96565b5b0361075557600160008281526020019081526020016000206040518060600160405290816000820154815260200160018201805461066b90610fe0565b80601f016020809104026020016040519081016040528092919081815260200182805461069790610fe0565b80156106e45780601f106106b9576101008083540402835291602001916106e4565b820191906000526020600020905b8154815290600101906020018083116106c757829003601f168201915b505050505081526020016002820160009054906101000a900460ff16600281111561071257610711610b96565b5b600281111561072457610723610b96565b5b8152505083838151811061073b5761073a611321565b5b6020026020010181905250818061075190610f69565b9250505b808061076090610f69565b9150506105dc565b5060008167ffffffffffffffff8111156107855761078461098a565b5b6040519080825280602002602001820160405280156107be57816020015b6107ab610928565b8152602001906001900390816107a35790505b50905060005b82811015610812578381815181106107df576107de611321565b5b60200260200101518282815181106107fa576107f9611321565b5b602002602001018190525080806001019150506107c4565b50809350505050919050565b6000600281111561083257610831610b96565b5b6001600083815260200190815260200160002060020160009054906101000a900460ff16600281111561086857610867610b96565b5b146108a8576040517f08c379a000000000000000000000000000000000000000000000000000000000815260040161089f906113c2565b60405180910390fd5b600180600083815260200190815260200160002060020160006101000a81548160ff021916908360028111156108e1576108e0610b96565b5b0217905550807fdf7efc9f6f5bce44cbf5db3d8362387f6d02e0566c37fb4ed10cd3d05b35ecad60016040516109179190610ce7565b60405180910390a250565b60005481565b604051806060016040528060008152602001606081526020016000600281111561095557610954610b96565b5b81525090565b6000604051905090565b600080fd5b600080fd5b600080fd5b600080fd5b6000601f19601f8301169050919050565b7f4e487b7100000000000000000000000000000000000000000000000000000000600052604160045260246000fd5b6109c282610979565b810181811067ffffffffffffffff821117156109e1576109e061098a565b5b80604052505050565b60006109f461095b565b9050610a0082826109b9565b919050565b600067ffffffffffffffff821115610a2057610a1f61098a565b5b610a2982610979565b9050602081019050919050565b82818337600083830152505050565b6000610a58610a5384610a05565b6109ea565b905082815260208101848484011115610a7457610a73610974565b5b610a7f848285610a36565b509392505050565b600082601f830112610a9c57610a9b61096f565b5b8135610aac848260208601610a45565b91505092915050565b600060208284031215610acb57610aca610965565b5b600082013567ffffffffffffffff811115610ae957610ae861096a565b5b610af584828501610a87565b91505092915050565b6000819050919050565b610b1181610afe565b82525050565b600081519050919050565b600082825260208201905092915050565b60005b83811015610b51578082015181840152602081019050610b36565b60008484015250505050565b6000610b6882610b17565b610b728185610b22565b9350610b82818560208601610b33565b610b8b81610979565b840191505092915050565b7f4e487b7100000000000000000000000000000000000000000000000000000000600052602160045260246000fd5b60038110610bd657610bd5610b96565b5b50565b6000819050610be782610bc5565b919050565b6000610bf782610bd9565b9050919050565b610c0781610bec565b82525050565b6000606083016000830151610c256000860182610b08565b5060208301518482036020860152610c3d8282610b5d565b9150506040830151610c526040860182610bfe565b508091505092915050565b60006020820190508181036000830152610c778184610c0d565b905092915050565b610c8881610afe565b8114610c9357600080fd5b50565b600081359050610ca581610c7f565b92915050565b600060208284031215610cc157610cc0610965565b5b6000610ccf84828501610c96565b91505092915050565b610ce181610bec565b82525050565b6000602082019050610cfc6000830184610cd8565b92915050565b610d0b81610afe565b82525050565b600082825260208201905092915050565b6000610d2d82610b17565b610d378185610d11565b9350610d47818560208601610b33565b610d5081610979565b840191505092915050565b6000606082019050610d706000830186610d02565b8181036020830152610d828185610d22565b9050610d916040830184610cd8565b949350505050565b60038110610da657600080fd5b50565b600081359050610db881610d99565b92915050565b600060208284031215610dd457610dd3610965565b5b6000610de284828501610da9565b91505092915050565b600081519050919050565b600082825260208201905092915050565b6000819050602082019050919050565b6000606083016000830151610e2f6000860182610b08565b5060208301518482036020860152610e478282610b5d565b9150506040830151610e5c6040860182610bfe565b508091505092915050565b6000610e738383610e17565b905092915050565b6000602082019050919050565b6000610e9382610deb565b610e9d8185610df6565b935083602082028501610eaf85610e07565b8060005b85811015610eeb5784840389528151610ecc8582610e67565b9450610ed783610e7b565b925060208a01995050600181019050610eb3565b50829750879550505050505092915050565b60006020820190508181036000830152610f178184610e88565b905092915050565b6000602082019050610f346000830184610d02565b92915050565b7f4e487b7100000000000000000000000000000000000000000000000000000000600052601160045260246000fd5b6000610f7482610afe565b91507fffffffffffffffffffffffffffffffffffffffffffffffffffffffffffffffff8203610fa657610fa5610f3a565b5b600182019050919050565b7f4e487b7100000000000000000000000000000000000000000000000000000000600052602260045260246000fd5b60006002820490506001821680610ff857607f821691505b60208210810361100b5761100a610fb1565b5b50919050565b60008190508160005260206000209050919050565b60006020601f8301049050919050565b600082821b905092915050565b6000600883026110737fffffffffffffffffffffffffffffffffffffffffffffffffffffffffffffffff82611036565b61107d8683611036565b95508019841693508086168417925050509392505050565b6000819050919050565b60006110ba6110b56110b084610afe565b611095565b610afe565b9050919050565b6000819050919050565b6110d48361109f565b6110e86110e0826110c1565b848454611043565b825550505050565b600090565b6110fd6110f0565b6111088184846110cb565b505050565b5b8181101561112c576111216000826110f5565b60018101905061110e565b5050565b601f8211156111715761114281611011565b61114b84611026565b8101602085101561115a578190505b61116e61116685611026565b83018261110d565b50505b505050565b600082821c905092915050565b600061119460001984600802611176565b1980831691505092915050565b60006111ad8383611183565b9150826002028217905092915050565b6111c682610b17565b67ffffffffffffffff8111156111df576111de61098a565b5b6111e98254610fe0565b6111f4828285611130565b600060209050601f8311600181146112275760008415611215578287015190505b61121f85826111a1565b865550611287565b601f19841661123586611011565b60005b8281101561125d57848901518255600182019150602085019450602081019050611238565b8683101561127a5784890151611276601f891682611183565b8355505b6001600288020188555050505b505050505050565b7f50726f64756374206d75737420626520696e20275472616e7369742720746f2060008201527f62652064656c6976657265642e00000000000000000000000000000000000000602082015250565b60006112eb602d83610d11565b91506112f68261128f565b604082019050919050565b6000602082019050818103600083015261131a816112de565b9050919050565b7f4e487b7100000000000000000000000000000000000000000000000000000000600052603260045260246000fd5b7f50726f64756374206d75737420626520696e2074686520274d616e756661637460008201527f7572652720737461746520746f206d6f766520746f20275472616e736974272e602082015250565b60006113ac604083610d11565b91506113b782611350565b604082019050919050565b600060208201905081810360008301526113db8161139f565b905091905056fea2646970667358221220b1cf745929823d1ae6bb59a3afaca07f09a039475e621cd6abc86add190a0b1364736f6c63430008180033",
  "linkReferences": {},
  "deployedLinkReferences": {}
}