{
  "_format": "hh-sol-artifact-1",
  "contractName": "Chain",
  "sourceName": "contracts/chain.sol",
  "abi": [
    {
      "anonymous": false,
      "inputs": [
        {
          "indexed": true,
          "internalType": "uint256",
          "name": "productId",
          "type": "uint256"
        },
        {
          "indexed": false,
          "internalType": "enum Chain.State",
          "name": "state",
          "type": "uint8"
        }
      ],
      "name": "ProductStateChanged",
      "type": "event"
    },
    {
      "inputs": [
        {
          "internalType": "string",
          "name": "_name",
          "type": "string"
        }
      ],
      "name": "createProduct",
      "outputs": [],
      "stateMutability": "nonpayable",
      "type": "function"
    },
    {
      "inputs": [
        {
          "internalType": "uint256",
          "name": "productId",
          "type": "uint256"
        }
      ],
      "name": "deliverProduct",
      "outputs": [],
      "stateMutability": "nonpayable",
      "type": "function"
    },
    {
      "inputs": [
        {
          "internalType": "uint256",
          "name": "productId",
          "type": "uint256"
        }
      ],
      "name": "getProductState",
      "outputs": [
        {
          "internalType": "enum Chain.State",
          "name": "",
          "type": "uint8"
        }
      ],
      "stateMutability": "view",
      "type": "function"
    },
    {
      "inputs": [
        {
          "internalType": "enum Chain.State",
          "name": "_state",
          "type": "uint8"
        }
      ],
      "name": "getProductsByState",
      "outputs": [
        {
          "components": [
            {
              "internalType": "uint256",
              "name": "id",
              "type": "uint256"
            },
            {
              "internalType": "string",
              "name": "name",
              "type": "string"
            },
            {
              "internalType": "enum Chain.State",
              "name": "state",
              "type": "uint8"
            }
          ],
          "internalType": "struct Chain.Product[]",
          "name": "_products",
          "type": "tuple[]"
        }
      ],
      "stateMutability": "view",
      "type": "function"
    },
    {
      "inputs": [
        {
          "internalType": "uint256",
          "name": "productId",
          "type": "uint256"
        }
      ],
      "name": "moveToTransit",
      "outputs": [],
      "stateMutability": "nonpayable",
      "type": "function"
    },
    {
      "inputs": [],
      "name": "productCount",
      "outputs": [
        {
          "internalType": "uint256",
          "name": "",
          "type": "uint256"
        }
      ],
      "stateMutability": "view",
      "type": "function"
    },
    {
      "inputs": [
        {
          "internalType": "uint256",
          "name": "",
          "type": "uint256"
        }
      ],
      "name": "products",
      "outputs": [
        {
          "internalType": "uint256",
          "name": "id",
          "type": "uint256"
        },
        {
          "internalType": "string",
          "name": "name",
          "type": "string"
        },
        {
          "internalType": "enum Chain.State",
          "name": "state",
          "type": "uint8"
        }
      ],
      "stateMutability": "view",
      "type": "function"
    }
  ],
  "bytecode": "0x60806040526000805534801561001457600080fd5b50611290806100246000396000f3fe608060405234801561001057600080fd5b506004361061007d5760003560e01c80637acc0b201161005b5780637acc0b20146100ea57806385d55cec1461011c578063c94fa5791461014c578063e0f6ef87146101685761007d565b806302ec06be1461008257806312bb716d1461009e5780631c96fb1f146100ce575b600080fd5b61009c6004803603810190610097919061099f565b610186565b005b6100b860048036038101906100b39190610a1e565b610272565b6040516100c59190610ac2565b60405180910390f35b6100e860048036038101906100e39190610a1e565b61029f565b005b61010460048036038101906100ff9190610a1e565b6103a4565b60405161011393929190610b6b565b60405180910390f35b61013660048036038101906101319190610bce565b610463565b6040516101439190610d75565b60405180910390f35b61016660048036038101906101619190610a1e565b610708565b005b61017061080c565b60405161017d9190610d97565b60405180910390f35b60008081548092919061019890610de1565b919050555060405180606001604052806000548152602001828152602001600060028111156101ca576101c9610a4b565b5b81525060016000805481526020019081526020016000206000820151816000015560208201518160010190816102009190611035565b5060408201518160020160006101000a81548160ff0219169083600281111561022c5761022b610a4b565b5b02179055509050506000547fdf7efc9f6f5bce44cbf5db3d8362387f6d02e0566c37fb4ed10cd3d05b35ecad60006040516102679190610ac2565b60405180910390a250565b60006001600083815260200190815260200160002060020160009054906101000a900460ff169050919050565b600160028111156102b3576102b2610a4b565b5b6001600083815260200190815260200160002060020160009054906101000a900460ff1660028111156102e9576102e8610a4b565b5b14610329576040517f08c379a000000000000000000000000000000000000000000000000000000000815260040161032090611179565b60405180910390fd5b60026001600083815260200190815260200160002060020160006101000a81548160ff0219169083600281111561036357610362610a4b565b5b0217905550807fdf7efc9f6f5bce44cbf5db3d8362387f6d02e0566c37fb4ed10cd3d05b35ecad60026040516103999190610ac2565b60405180910390a250565b60016020528060005260406000206000915090508060000154908060010180546103cd90610e58565b80601f01602080910402602001604051908101604052809291908181526020018280546103f990610e58565b80156104465780601f1061041b57610100808354040283529160200191610446565b820191906000526020600020905b81548152906001019060200180831161042957829003601f168201915b5050505050908060020160009054906101000a900460ff16905083565b60606000805467ffffffffffffffff81111561048257610481610874565b5b6040519080825280602002602001820160405280156104bb57816020015b6104a8610812565b8152602001906001900390816104a05790505b509050600080600190505b6000548111610652578460028111156104e2576104e1610a4b565b5b6001600083815260200190815260200160002060020160009054906101000a900460ff16600281111561051857610517610a4b565b5b0361063f57600160008281526020019081526020016000206040518060600160405290816000820154815260200160018201805461055590610e58565b80601f016020809104026020016040519081016040528092919081815260200182805461058190610e58565b80156105ce5780601f106105a3576101008083540402835291602001916105ce565b820191906000526020600020905b8154815290600101906020018083116105b157829003601f168201915b505050505081526020016002820160009054906101000a900460ff1660028111156105fc576105fb610a4b565b5b600281111561060e5761060d610a4b565b5b8152505083838151811061062557610624611199565b5b6020026020010181905250818061063b90610de1565b9250505b808061064a90610de1565b9150506104c6565b5060008167ffffffffffffffff81111561066f5761066e610874565b5b6040519080825280602002602001820160405280156106a857816020015b610695610812565b81526020019060019003908161068d5790505b50905060005b828110156106fc578381815181106106c9576106c8611199565b5b60200260200101518282815181106106e4576106e3611199565b5b602002602001018190525080806001019150506106ae565b50809350505050919050565b6000600281111561071c5761071b610a4b565b5b6001600083815260200190815260200160002060020160009054906101000a900460ff16600281111561075257610751610a4b565b5b14610792576040517f08c379a00000000000000000000000000000000000000000000000000000000081526004016107899061123a565b60405180910390fd5b600180600083815260200190815260200160002060020160006101000a81548160ff021916908360028111156107cb576107ca610a4b565b5b0217905550807fdf7efc9f6f5bce44cbf5db3d8362387f6d02e0566c37fb4ed10cd3d05b35ecad60016040516108019190610ac2565b60405180910390a250565b60005481565b604051806060016040528060008152602001606081526020016000600281111561083f5761083e610a4b565b5b81525090565b6000604051905090565b600080fd5b600080fd5b600080fd5b600080fd5b6000601f19601f8301169050919050565b7f4e487b7100000000000000000000000000000000000000000000000000000000600052604160045260246000fd5b6108ac82610863565b810181811067ffffffffffffffff821117156108cb576108ca610874565b5b80604052505050565b60006108de610845565b90506108ea82826108a3565b919050565b600067ffffffffffffffff82111561090a57610909610874565b5b61091382610863565b9050602081019050919050565b82818337600083830152505050565b600061094261093d846108ef565b6108d4565b90508281526020810184848401111561095e5761095d61085e565b5b610969848285610920565b509392505050565b600082601f83011261098657610985610859565b5b813561099684826020860161092f565b91505092915050565b6000602082840312156109b5576109b461084f565b5b600082013567ffffffffffffffff8111156109d3576109d2610854565b5b6109df84828501610971565b91505092915050565b6000819050919050565b6109fb816109e8565b8114610a0657600080fd5b50565b600081359050610a18816109f2565b92915050565b600060208284031215610a3457610a3361084f565b5b6000610a4284828501610a09565b91505092915050565b7f4e487b7100000000000000000000000000000000000000000000000000000000600052602160045260246000fd5b60038110610a8b57610a8a610a4b565b5b50565b6000819050610a9c82610a7a565b919050565b6000610aac82610a8e565b9050919050565b610abc81610aa1565b82525050565b6000602082019050610ad76000830184610ab3565b92915050565b610ae6816109e8565b82525050565b600081519050919050565b600082825260208201905092915050565b60005b83811015610b26578082015181840152602081019050610b0b565b60008484015250505050565b6000610b3d82610aec565b610b478185610af7565b9350610b57818560208601610b08565b610b6081610863565b840191505092915050565b6000606082019050610b806000830186610add565b8181036020830152610b928185610b32565b9050610ba16040830184610ab3565b949350505050565b60038110610bb657600080fd5b50565b600081359050610bc881610ba9565b92915050565b600060208284031215610be457610be361084f565b5b6000610bf284828501610bb9565b91505092915050565b600081519050919050565b600082825260208201905092915050565b6000819050602082019050919050565b610c30816109e8565b82525050565b600082825260208201905092915050565b6000610c5282610aec565b610c5c8185610c36565b9350610c6c818560208601610b08565b610c7581610863565b840191505092915050565b610c8981610aa1565b82525050565b6000606083016000830151610ca76000860182610c27565b5060208301518482036020860152610cbf8282610c47565b9150506040830151610cd46040860182610c80565b508091505092915050565b6000610ceb8383610c8f565b905092915050565b6000602082019050919050565b6000610d0b82610bfb565b610d158185610c06565b935083602082028501610d2785610c17565b8060005b85811015610d635784840389528151610d448582610cdf565b9450610d4f83610cf3565b925060208a01995050600181019050610d2b565b50829750879550505050505092915050565b60006020820190508181036000830152610d8f8184610d00565b905092915050565b6000602082019050610dac6000830184610add565b92915050565b7f4e487b7100000000000000000000000000000000000000000000000000000000600052601160045260246000fd5b6000610dec826109e8565b91507fffffffffffffffffffffffffffffffffffffffffffffffffffffffffffffffff8203610e1e57610e1d610db2565b5b600182019050919050565b7f4e487b7100000000000000000000000000000000000000000000000000000000600052602260045260246000fd5b60006002820490506001821680610e7057607f821691505b602082108103610e8357610e82610e29565b5b50919050565b60008190508160005260206000209050919050565b60006020601f8301049050919050565b600082821b905092915050565b600060088302610eeb7fffffffffffffffffffffffffffffffffffffffffffffffffffffffffffffffff82610eae565b610ef58683610eae565b95508019841693508086168417925050509392505050565b6000819050919050565b6000610f32610f2d610f28846109e8565b610f0d565b6109e8565b9050919050565b6000819050919050565b610f4c83610f17565b610f60610f5882610f39565b848454610ebb565b825550505050565b600090565b610f75610f68565b610f80818484610f43565b505050565b5b81811015610fa457610f99600082610f6d565b600181019050610f86565b5050565b601f821115610fe957610fba81610e89565b610fc384610e9e565b81016020851015610fd2578190505b610fe6610fde85610e9e565b830182610f85565b50505b505050565b600082821c905092915050565b600061100c60001984600802610fee565b1980831691505092915050565b60006110258383610ffb565b9150826002028217905092915050565b61103e82610aec565b67ffffffffffffffff81111561105757611056610874565b5b6110618254610e58565b61106c828285610fa8565b600060209050601f83116001811461109f576000841561108d578287015190505b6110978582611019565b8655506110ff565b601f1984166110ad86610e89565b60005b828110156110d5578489015182556001820191506020850194506020810190506110b0565b868310156110f257848901516110ee601f891682610ffb565b8355505b6001600288020188555050505b505050505050565b7f50726f64756374206d75737420626520696e20275472616e7369742720746f2060008201527f62652064656c6976657265642e00000000000000000000000000000000000000602082015250565b6000611163602d83610af7565b915061116e82611107565b604082019050919050565b6000602082019050818103600083015261119281611156565b9050919050565b7f4e487b7100000000000000000000000000000000000000000000000000000000600052603260045260246000fd5b7f50726f64756374206d75737420626520696e2074686520274d616e756661637460008201527f7572652720737461746520746f206d6f766520746f20275472616e736974272e602082015250565b6000611224604083610af7565b915061122f826111c8565b604082019050919050565b6000602082019050818103600083015261125381611217565b905091905056fea26469706673582212207b3ba8fb00c5accc861d69e8b0210e8ad516d22a6dc1ae6eab3a1a72c919a06d64736f6c63430008180033",
  "linkReferences": {},
  "deployedLinkReferences": {}
}